:100000000C9400010C943B010C946A010C9499012E
:100010000C94C8010C94F7010C9426020C94550220
:100020000C9484020C94B3020C94E2020C9411031D
:100030000C9440030C946F030C949E030C94CD031A
:100040000C94FC030C942B040C945A040C94890417
:100050000C94B8040C94E7040C9416050C94450514
:100060000C9474050C94A3050C94D2050C94010611
:100070000C9430060C945F060C948E060C94BD060E
:100080000C94EC060C941B070C944A070C9479070B
:060090000C94A807F7071D
:10010000249A089581708295807F95B19F7E982B67
:0401100095B9089500
:1002000011241FBECFEFD0E1DEBFCDBF11E0A0E0D3
:10021000B1E0E0E4F2E100E00BBF02C007900D9214
:10022000A030B107D9F711E0A0E0B1E001C01D9204
:10023000A039B107E1F72DE088E190E00FB6F8941E
:10024000A895809360000FBE2093600010E0C6E97F
:10025000D0E000E006C022970109FE010BBF0E941A
:100260001A09C439D10780E00807A9F70E94D70707
:100270000C941E0908951F920F920FB60F920BB6A1
:100280000F9211242F933F934F935F936F937F931C
:100290008F939F93AF93BF93EF93FF93E0918E0162
:1002A000F0918F0180918C0190918D010995FF91C2
:1002B000EF91BF91AF919F918F917F916F915F91DE
:1002C0004F913F912F910F900BBE0F900FBE0F904B
:1002D0001F9018951F920F920FB60F920BB60F92A8
:1002E00011242F933F934F935F936F937F938F933B
:1002F0009F93AF93BF93EF93FF93E0918A01F091A7
:100300008B0180918801909189010995FF91EF916E
:10031000BF91AF919F918F917F916F915F914F911D
:100320003F912F910F900BBE0F900FBE0F901F901B
:1003300018951F920F920FB60F920BB60F921124C1
:100340002F933F934F935F936F937F938F939F93DD
:10035000AF93BF93EF93FF93E0918601F0918701F4
:1003600080918401909185010995FF91EF91BF9152
:10037000AF919F918F917F916F915F914F913F913D
:100380002F910F900BBE0F900FBE0F901F901895DE
:100390001F920F920FB60F920BB60F9211242F934C
:1003A0003F934F935F936F937F938F939F93AF93FD
:1003B000BF93EF93FF93E0918201F09183018091CD
:1003C0008001909181010995FF91EF91BF91AF91CB
:1003D0009F918F917F916F915F914F913F912F915D
:1003E0000F900BBE0F900FBE0F901F9018951F928D
:1003F0000F920FB60F920BB60F9211242F933F93CB
:100400004F935F936F937F938F939F93AF93BF931C
:10041000EF93FF93E0917E01F0917F0180917C0149
:1004200090917D010995FF91EF91BF91AF919F91BF
:100430008F917F916F915F914F913F912F910F908D
:100440000BBE0F900FBE0F901F9018951F920F922A
:100450000FB60F920BB60F9211242F933F934F9329
:100460005F936F937F938F939F93AF93BF93EF931C
:10047000FF93E0917A01F0917B0180917801909156
:1004800079010995FF91EF91BF91AF919F918F9164
:100490007F916F915F914F913F912F910F900BBE84
:1004A0000F900FBE0F901F9018951F920F920FB6CE
:1004B0000F920BB60F9211242F933F934F935F939C
:1004C0006F937F938F939F93AF93BF93EF93FF931C
:1004D000E0917601F091770180917401909175011E
:1004E0000995FF91EF91BF91AF919F918F917F916E
:1004F0006F915F914F913F912F910F900BBE0F9095
:100500000FBE0F901F9018951F920F920FB60F926B
:100510000BB60F9211242F933F934F935F936F93DA
:100520007F938F939F93AF93BF93EF93FF93E0914C
:100530007201F091730180917001909171010995A0
:10054000FF91EF91BF91AF919F918F917F916F91AB
:100550005F914F913F912F910F900BBE0F900FBE67
:100560000F901F9018951F920F920FB60F920BB617
:100570000F9211242F933F934F935F936F937F9329
:100580008F939F93AF93BF93EF93FF93E0916E018F
:10059000F0916F0180916C0190916D010995FF912F
:1005A000EF91BF91AF919F918F917F916F915F91EB
:1005B0004F913F912F910F900BBE0F900FBE0F9058
:1005C0001F9018951F920F920FB60F920BB60F92B5
:1005D00011242F933F934F935F936F937F938F9348
:1005E0009F93AF93BF93EF93FF93E0916A01F091D4
:1005F0006B0180916801909169010995FF91EF91DC
:10060000BF91AF919F918F917F916F915F914F912A
:100610003F912F910F900BBE0F900FBE0F901F9028
:1006200018951F920F920FB60F920BB60F921124CE
:100630002F933F934F935F936F937F938F939F93EA
:10064000AF93BF93EF93FF93E0916601F091670141
:1006500080916401909165010995FF91EF91BF919F
:10066000AF919F918F917F916F915F914F913F914A
:100670002F910F900BBE0F900FBE0F901F901895EB
:100680001F920F920FB60F920BB60F9211242F9359
:100690003F934F935F936F937F938F939F93AF930A
:1006A000BF93EF93FF93E0916201F091630180911A
:1006B0006001909161010995FF91EF91BF91AF9118
:1006C0009F918F917F916F915F914F913F912F916A
:1006D0000F900BBE0F900FBE0F901F9018951F929A
:1006E0000F920FB60F920BB60F9211242F933F93D8
:1006F0004F935F936F937F938F939F93AF93BF932A
:10070000EF93FF93E0915E01F0915F0180915C01B6
:1007100090915D010995FF91EF91BF91AF919F91EC
:100720008F917F916F915F914F913F912F910F909A
:100730000BBE0F900FBE0F901F9018951F920F9237
:100740000FB60F920BB60F9211242F933F934F9336
:100750005F936F937F938F939F93AF93BF93EF9329
:10076000FF93E0915A01F0915B01809158019091C3
:1007700059010995FF91EF91BF91AF919F918F9191
:100780007F916F915F914F913F912F910F900BBE91
:100790000F900FBE0F901F9018951F920F920FB6DB
:1007A0000F920BB60F9211242F933F934F935F93A9
:1007B0006F937F938F939F93AF93BF93EF93FF9329
:1007C000E0915601F09157018091540190915501AB
:1007D0000995FF91EF91BF91AF919F918F917F917B
:1007E0006F915F914F913F912F910F900BBE0F90A2
:1007F0000FBE0F901F9018951F920F920FB60F9279
:100800000BB60F9211242F933F934F935F936F93E7
:100810007F938F939F93AF93BF93EF93FF93E09159
:100820005201F0915301809150019091510109952D
:10083000FF91EF91BF91AF919F918F917F916F91B8
:100840005F914F913F912F910F900BBE0F900FBE74
:100850000F901F9018951F920F920FB60F920BB624
:100860000F9211242F933F934F935F936F937F9336
:100870008F939F93AF93BF93EF93FF93E0914E01BC
:10088000F0914F0180914C0190914D010995FF919C
:10089000EF91BF91AF919F918F917F916F915F91F8
:1008A0004F913F912F910F900BBE0F900FBE0F9065
:1008B0001F9018951F920F920FB60F920BB60F92C2
:1008C00011242F933F934F935F936F937F938F9355
:1008D0009F93AF93BF93EF93FF93E0914A01F09101
:1008E0004B0180914801909149010995FF91EF9149
:1008F000BF91AF919F918F917F916F915F914F9138
:100900003F912F910F900BBE0F900FBE0F901F9035
:1009100018951F920F920FB60F920BB60F921124DB
:100920002F933F934F935F936F937F938F939F93F7
:10093000AF93BF93EF93FF93E0914601F09147018E
:1009400080914401909145010995FF91EF91BF91EC
:10095000AF919F918F917F916F915F914F913F9157
:100960002F910F900BBE0F900FBE0F901F901895F8
:100970001F920F920FB60F920BB60F9211242F9366
:100980003F934F935F936F937F938F939F93AF9317
:10099000BF93EF93FF93E0914201F0914301809167
:1009A0004001909141010995FF91EF91BF91AF9165
:1009B0009F918F917F916F915F914F913F912F9177
:1009C0000F900BBE0F900FBE0F901F9018951F92A7
:1009D0000F920FB60F920BB60F9211242F933F93E5
:1009E0004F935F936F937F938F939F93AF93BF9337
:1009F000EF93FF93E0913E01F0913F0180913C0124
:100A000090913D010995FF91EF91BF91AF919F9119
:100A10008F917F916F915F914F913F912F910F90A7
:100A20000BBE0F900FBE0F901F9018951F920F9244
:100A30000FB60F920BB60F9211242F933F934F9343
:100A40005F936F937F938F939F93AF93BF93EF9336
:100A5000FF93E0913A01F0913B0180913801909130
:100A600039010995FF91EF91BF91AF919F918F91BE
:100A70007F916F915F914F913F912F910F900BBE9E
:100A80000F900FBE0F901F9018951F920F920FB6E8
:100A90000F920BB60F9211242F933F934F935F93B6
:100AA0006F937F938F939F93AF93BF93EF93FF9336
:100AB000E0913601F0913701809134019091350138
:100AC0000995FF91EF91BF91AF919F918F917F9188
:100AD0006F915F914F913F912F910F900BBE0F90AF
:100AE0000FBE0F901F9018951F920F920FB60F9286
:100AF0000BB60F9211242F933F934F935F936F93F5
:100B00007F938F939F93AF93BF93EF93FF93E09166
:100B10003201F091330180913001909131010995BA
:100B2000FF91EF91BF91AF919F918F917F916F91C5
:100B30005F914F913F912F910F900BBE0F900FBE81
:100B40000F901F9018951F920F920FB60F920BB631
:100B50000F9211242F933F934F935F936F937F9343
:100B60008F939F93AF93BF93EF93FF93E0912E01E9
:100B7000F0912F0180912C0190912D010995FF9109
:100B8000EF91BF91AF919F918F917F916F915F9105
:100B90004F913F912F910F900BBE0F900FBE0F9072
:100BA0001F9018951F920F920FB60F920BB60F92CF
:100BB00011242F933F934F935F936F937F938F9362
:100BC0009F93AF93BF93EF93FF93E0912A01F0912E
:100BD0002B0180912801909129010995FF91EF91B6
:100BE000BF91AF919F918F917F916F915F914F9145
:100BF0003F912F910F900BBE0F900FBE0F901F9043
:100C000018951F920F920FB60F920BB60F921124E8
:100C10002F933F934F935F936F937F938F939F9304
:100C2000AF93BF93EF93FF93E0912601F0912701DB
:100C300080912401909125010995FF91EF91BF9139
:100C4000AF919F918F917F916F915F914F913F9164
:100C50002F910F900BBE0F900FBE0F901F90189505
:100C60001F920F920FB60F920BB60F9211242F9373
:100C70003F934F935F936F937F938F939F93AF9324
:100C8000BF93EF93FF93E0912201F09123018091B4
:100C90002001909121010995FF91EF91BF91AF91B2
:100CA0009F918F917F916F915F914F913F912F9184
:100CB0000F900BBE0F900FBE0F901F9018951F92B4
:100CC0000F920FB60F920BB60F9211242F933F93F2
:100CD0004F935F936F937F938F939F93AF93BF9344
:100CE000EF93FF93E0911E01F0911F0180911C0191
:100CF00090911D010995FF91EF91BF91AF919F9147
:100D00008F917F916F915F914F913F912F910F90B4
:100D10000BBE0F900FBE0F901F9018951F920F9251
:100D20000FB60F920BB60F9211242F933F934F9350
:100D30005F936F937F938F939F93AF93BF93EF9343
:100D4000FF93E0911A01F0911B018091180190919D
:100D500019010995FF91EF91BF91AF919F918F91EB
:100D60007F916F915F914F913F912F910F900BBEAB
:100D70000F900FBE0F901F9018951F920F920FB6F5
:100D80000F920BB60F9211242F933F934F935F93C3
:100D90006F937F938F939F93AF93BF93EF93FF9343
:100DA000E0911601F09117018091140190911501C5
:100DB0000995FF91EF91BF91AF919F918F917F9195
:100DC0006F915F914F913F912F910F900BBE0F90BC
:100DD0000FBE0F901F9018951F920F920FB60F9293
:100DE0000BB60F9211242F933F934F935F936F9302
:100DF0007F938F939F93AF93BF93EF93FF93E09174
:100E00001201F09113018091100190911101099547
:100E1000FF91EF91BF91AF919F918F917F916F91D2
:100E20005F914F913F912F910F900BBE0F900FBE8E
:100E30000F901F9018951F920F920FB60F920BB63E
:100E40000F9211242F933F934F935F936F937F9350
:100E50008F939F93AF93BF93EF93FF93E0910E0116
:100E6000F0910F0180910C0190910D010995FF9176
:100E7000EF91BF91AF919F918F917F916F915F9112
:100E80004F913F912F910F900BBE0F900FBE0F907F
:100E90001F9018951F920F920FB60F920BB60F92DC
:100EA00011242F933F934F935F936F937F938F936F
:100EB0009F93AF93BF93EF93FF93E0910A01F0915B
:100EC0000B0180910801909109010995FF91EF9123
:100ED000BF91AF919F918F917F916F915F914F9152
:100EE0003F912F910F900BBE0F900FBE0F901F9050
:100EF00018951F920F920FB60F920BB60F921124F6
:100F00002F933F934F935F936F937F938F939F9311
:100F1000AF93BF93EF93FF93E0910601F091070128
:100F200080910401909105010995FF91EF91BF9186
:100F3000AF919F918F917F916F915F914F913F9171
:100F40002F910F900BBE0F900FBE0F901F90189512
:100F50001F920F920FB60F920BB60F9211242F9380
:100F60003F934F935F936F937F938F939F93AF9331
:100F7000BF93EF93FF93E0910201F0910301809101
:100F80000001909101010995FF91EF91BF91AF91FF
:100F90009F918F917F916F915F914F913F912F9191
:100FA0000F900BBE0F900FBE0F901F901895000072
:100FB0003C9A3D9A459A449842E328EA31E6C901B1
:100FC0000197F1F7A8954150D1F7349A359A249AB0
:100FD0002C9A44E628EA31E6C9010197F1F7A89571
:100FE0004150D1F72C9844984598A895FECF10927F
:100FF0008D0110928C018AE391E090938F01809390
:101000008E01109289011092880190938B01809338
:101010008A01109285011092840190938701809338
:101020008601109281011092800190938301809338
:10103000820110927D0110927C0190937F01809338
:101040007E01109279011092780190937B01809338
:101050007A01109275011092740190937701809338
:101060007601109271011092700190937301809338
:10107000720110926D0110926C0190936F01809338
:101080006E01109269011092680190936B01809338
:101090006A01109265011092640190936701809338
:1010A0006601109261011092600190936301809338
:1010B000620110925D0110925C0190935F01809338
:1010C0005E01109259011092580190935B01809338
:1010D0005A01109255011092540190935701809338
:1010E0005601109251011092500190935301809338
:1010F000520110924D0110924C0190934F01809338
:101100004E01109249011092480190934B01809337
:101110004A01109245011092440190934701809337
:101120004601109241011092400190934301809337
:10113000420110923D0110923C0190933F01809337
:101140003E01109239011092380190933B01809337
:101150003A01109235011092340190933701809337
:101160003601109231011092300190933301809337
:10117000320110922D0110922C0190932F01809337
:101180002E01109229011092280190932B01809337
:101190002A01109225011092240190932701809337
:1011A0002601109221011092200190932301809337
:1011B000220110921D0110921C0190931F01809337
:1011C0001E01109219011092180190931B01809337
:1011D0001A01109215011092140190931701809337
:1011E0001601109211011092100190931301809337
:1011F000120110920D0110920C0190930F01809337
:101200000E01109209011092080190930B01809336
:101210000A01109205011092040190930701809336
:101220000601109201011092000190930301809336
:10123000020108950790F691E02D0994F894FFCFEC
:0400000300000200F7
:00000001FF
