:100000000C9480110C94CA110C94F9110C942812C0
:100010000C9457120C9486120C94B5120C94E412A2
:100020000C9413130C9442130C9471130C94A0139E
:100030000C94CF130C94FE130C942D140C945C149C
:100040000C948B140C94BA140C94E9140C94181599
:100050000C9447150C9476150C94A5150C94D41596
:100060000C9403160C9432160C9461160C94901692
:100070000C94BF160C94EE160C941D170C944C1790
:100080000C947B170C94AA170C94D9170C9408188D
:060090000C943718C8199A
:10010000249A089581708295807F95B19F7E982B67
:0401100095B9089500
:0B0200000000000000000000000000F3
:1003000000000000000000000000000000000000ED
:1003100000000000000000000000000000000000DD
:1003200000000000000000000000000000000000CD
:1023000011241FBECFEFD0E1DEBFCDBF11E0A0E0B2
:10231000B1E0ECE0F6E300E00BBF02C007900D92E5
:10232000A030B107D9F718E0A0E0B1E001C01D92DC
:10233000A332B107E1F72DE088E190E00FB6F89401
:10234000A895809360000FBE2093600010E0C6E95E
:10235000D0E000E006C022970109FE010BBF0E94F9
:10236000001BC439D10780E00807A9F70E9466184E
:102370000C94041B08950895F89428E088E190E0F7
:102380000FB6F894A895809360000FBE209360006C
:102390000000FECF1F920F920FB60F920BB60F9256
:1023A00011242F933F934F935F936F937F938F935A
:1023B0009F93AF93BF93EF93FF93E0912108F09128
:1023C000220880911F08909120080995FF91EF91B4
:1023D000BF91AF919F918F917F916F915F914F913D
:1023E0003F912F910F900BBE0F900FBE0F901F903B
:1023F00018951F920F920FB60F920BB60F921124E1
:102400002F933F934F935F936F937F938F939F93FC
:10241000AF93BF93EF93FF93E0911D08F0911E08D7
:1024200080911B0890911C080995FF91EF91BF9135
:10243000AF919F918F917F916F915F914F913F915C
:102440002F910F900BBE0F900FBE0F901F901895FD
:102450001F920F920FB60F920BB60F9211242F936B
:102460003F934F935F936F937F938F939F93AF931C
:10247000BF93EF93FF93E0911908F0911A088091B0
:102480001708909118080995FF91EF91BF91AF91AE
:102490009F918F917F916F915F914F913F912F917C
:1024A0000F900BBE0F900FBE0F901F9018951F92AC
:1024B0000F920FB60F920BB60F9211242F933F93EA
:1024C0004F935F936F937F938F939F93AF93BF933C
:1024D000EF93FF93E0911508F0911608809113088F
:1024E000909114080995FF91EF91BF91AF919F9141
:1024F0008F917F916F915F914F913F912F910F90AD
:102500000BBE0F900FBE0F901F9018951F920F9249
:102510000FB60F920BB60F9211242F933F934F9348
:102520005F936F937F938F939F93AF93BF93EF933B
:10253000FF93E0911108F091120880910F0890919B
:1025400010080995FF91EF91BF91AF919F918F91E5
:102550007F916F915F914F913F912F910F900BBEA3
:102560000F900FBE0F901F9018951F920F920FB6ED
:102570000F920BB60F9211242F933F934F935F93BB
:102580006F937F938F939F93AF93BF93EF93FF933B
:10259000E0910D08F0910E0880910B0890910C08C5
:1025A0000995FF91EF91BF91AF919F918F917F918D
:1025B0006F915F914F913F912F910F900BBE0F90B4
:1025C0000FBE0F901F9018951F920F920FB60F928B
:1025D0000BB60F9211242F933F934F935F936F93FA
:1025E0007F938F939F93AF93BF93EF93FF93E0916C
:1025F0000908F0910A088091070890910808099548
:10260000FF91EF91BF91AF919F918F917F916F91CA
:102610005F914F913F912F910F900BBE0F900FBE86
:102620000F901F9018951F920F920FB60F920BB636
:102630000F9211242F933F934F935F936F937F9348
:102640008F939F93AF93BF93EF93FF93E091050810
:10265000F091060880910308909104080995FF9174
:10266000EF91BF91AF919F918F917F916F915F910A
:102670004F913F912F910F900BBE0F900FBE0F9077
:102680001F9018951F920F920FB60F920BB60F92D4
:1026900011242F933F934F935F936F937F938F9367
:1026A0009F93AF93BF93EF93FF93E0910108F09155
:1026B00002088091FF07909100080995FF91EF9122
:1026C000BF91AF919F918F917F916F915F914F914A
:1026D0003F912F910F900BBE0F900FBE0F901F9048
:1026E00018951F920F920FB60F920BB60F921124EE
:1026F0002F933F934F935F936F937F938F939F930A
:10270000AF93BF93EF93FF93E091FD07F091FE0726
:102710008091FB079091FC070995FF91EF91BF9184
:10272000AF919F918F917F916F915F914F913F9169
:102730002F910F900BBE0F900FBE0F901F9018950A
:102740001F920F920FB60F920BB60F9211242F9378
:102750003F934F935F936F937F938F939F93AF9329
:10276000BF93EF93FF93E091F907F091FA078091FF
:10277000F7079091F8070995FF91EF91BF91AF91FD
:102780009F918F917F916F915F914F913F912F9189
:102790000F900BBE0F900FBE0F901F9018951F92B9
:1027A0000F920FB60F920BB60F9211242F933F93F7
:1027B0004F935F936F937F938F939F93AF93BF9349
:1027C000EF93FF93E091F507F091F6078091F307FF
:1027D0009091F4070995FF91EF91BF91AF919F916F
:1027E0008F917F916F915F914F913F912F910F90BA
:1027F0000BBE0F900FBE0F901F9018951F920F9257
:102800000FB60F920BB60F9211242F933F934F9355
:102810005F936F937F938F939F93AF93BF93EF9348
:10282000FF93E091F107F091F2078091EF0790910B
:10283000F0070995FF91EF91BF91AF919F918F9113
:102840007F916F915F914F913F912F910F900BBEB0
:102850000F900FBE0F901F9018951F920F920FB6FA
:102860000F920BB60F9211242F933F934F935F93C8
:102870006F937F938F939F93AF93BF93EF93FF9348
:10288000E091ED07F091EE078091EB079091EC0756
:102890000995FF91EF91BF91AF919F918F917F919A
:1028A0006F915F914F913F912F910F900BBE0F90C1
:1028B0000FBE0F901F9018951F920F920FB60F9298
:1028C0000BB60F9211242F933F934F935F936F9307
:1028D0007F938F939F93AF93BF93EF93FF93E09179
:1028E000E907F091EA078091E7079091E8070995D9
:1028F000FF91EF91BF91AF919F918F917F916F91D8
:102900005F914F913F912F910F900BBE0F900FBE93
:102910000F901F9018951F920F920FB60F920BB643
:102920000F9211242F933F934F935F936F937F9355
:102930008F939F93AF93BF93EF93FF93E091E5073E
:10294000F091E6078091E3079091E4070995FF91E4
:10295000EF91BF91AF919F918F917F916F915F9117
:102960004F913F912F910F900BBE0F900FBE0F9084
:102970001F9018951F920F920FB60F920BB60F92E1
:1029800011242F933F934F935F936F937F938F9374
:102990009F93AF93BF93EF93FF93E091E107F09183
:1029A000E2078091DF079091E0070995FF91EF9191
:1029B000BF91AF919F918F917F916F915F914F9157
:1029C0003F912F910F900BBE0F900FBE0F901F9055
:1029D00018951F920F920FB60F920BB60F921124FB
:1029E0002F933F934F935F936F937F938F939F9317
:1029F000AF93BF93EF93FF93E091DD07F091DE0774
:102A00008091DB079091DC070995FF91EF91BF91D1
:102A1000AF919F918F917F916F915F914F913F9176
:102A20002F910F900BBE0F900FBE0F901F90189517
:102A30001F920F920FB60F920BB60F9211242F9385
:102A40003F934F935F936F937F938F939F93AF9336
:102A5000BF93EF93FF93E091D907F091DA0780914C
:102A6000D7079091D8070995FF91EF91BF91AF914A
:102A70009F918F917F916F915F914F913F912F9196
:102A80000F900BBE0F900FBE0F901F9018951F92C6
:102A90000F920FB60F920BB60F9211242F933F9304
:102AA0004F935F936F937F938F939F93AF93BF9356
:102AB000EF93FF93E091D507F091D6078091D3076C
:102AC0009091D4070995FF91EF91BF91AF919F919C
:102AD0008F917F916F915F914F913F912F910F90C7
:102AE0000BBE0F900FBE0F901F9018951F920F9264
:102AF0000FB60F920BB60F9211242F933F934F9363
:102B00005F936F937F938F939F93AF93BF93EF9355
:102B1000FF93E091D107F091D2078091CF07909178
:102B2000D0070995FF91EF91BF91AF919F918F9140
:102B30007F916F915F914F913F912F910F900BBEBD
:102B40000F900FBE0F901F9018951F920F920FB607
:102B50000F920BB60F9211242F933F934F935F93D5
:102B60006F937F938F939F93AF93BF93EF93FF9355
:102B7000E091CD07F091CE078091CB079091CC07E3
:102B80000995FF91EF91BF91AF919F918F917F91A7
:102B90006F915F914F913F912F910F900BBE0F90CE
:102BA0000FBE0F901F9018951F920F920FB60F92A5
:102BB0000BB60F9211242F933F934F935F936F9314
:102BC0007F938F939F93AF93BF93EF93FF93E09186
:102BD000C907F091CA078091C7079091C807099566
:102BE000FF91EF91BF91AF919F918F917F916F91E5
:102BF0005F914F913F912F910F900BBE0F900FBEA1
:102C00000F901F9018951F920F920FB60F920BB650
:102C10000F9211242F933F934F935F936F937F9362
:102C20008F939F93AF93BF93EF93FF93E091C5076B
:102C3000F091C6078091C3079091C4070995FF9151
:102C4000EF91BF91AF919F918F917F916F915F9124
:102C50004F913F912F910F900BBE0F900FBE0F9091
:102C60001F9018951F920F920FB60F920BB60F92EE
:102C700011242F933F934F935F936F937F938F9381
:102C80009F93AF93BF93EF93FF93E091C107F091B0
:102C9000C2078091BF079091C0070995FF91EF91FE
:102CA000BF91AF919F918F917F916F915F914F9164
:102CB0003F912F910F900BBE0F900FBE0F901F9062
:102CC00018951F920F920FB60F920BB60F92112408
:102CD0002F933F934F935F936F937F938F939F9324
:102CE000AF93BF93EF93FF93E091BD07F091BE07C1
:102CF0008091BB079091BC070995FF91EF91BF911F
:102D0000AF919F918F917F916F915F914F913F9183
:102D10002F910F900BBE0F900FBE0F901F90189524
:102D20001F920F920FB60F920BB60F9211242F9392
:102D30003F934F935F936F937F938F939F93AF9343
:102D4000BF93EF93FF93E091B907F091BA07809199
:102D5000B7079091B8070995FF91EF91BF91AF9197
:102D60009F918F917F916F915F914F913F912F91A3
:102D70000F900BBE0F900FBE0F901F9018951F92D3
:102D80000F920FB60F920BB60F9211242F933F9311
:102D90004F935F936F937F938F939F93AF93BF9363
:102DA000EF93FF93E091B507F091B6078091B307D9
:102DB0009091B4070995FF91EF91BF91AF919F91C9
:102DC0008F917F916F915F914F913F912F910F90D4
:102DD0000BBE0F900FBE0F901F9018951F920F9271
:102DE0000FB60F920BB60F9211242F933F934F9370
:102DF0005F936F937F938F939F93AF93BF93EF9363
:102E0000FF93E091B107F091B2078091AF079091E5
:102E1000B0070995FF91EF91BF91AF919F918F916D
:102E20007F916F915F914F913F912F910F900BBECA
:102E30000F900FBE0F901F9018951F920F920FB614
:102E40000F920BB60F9211242F933F934F935F93E2
:102E50006F937F938F939F93AF93BF93EF93FF9362
:102E6000E091AD07F091AE078091AB079091AC0770
:102E70000995FF91EF91BF91AF919F918F917F91B4
:102E80006F915F914F913F912F910F900BBE0F90DB
:102E90000FBE0F901F9018951F920F920FB60F92B2
:102EA0000BB60F9211242F933F934F935F936F9321
:102EB0007F938F939F93AF93BF93EF93FF93E09193
:102EC000A907F091AA078091A7079091A8070995F3
:102ED000FF91EF91BF91AF919F918F917F916F91F2
:102EE0005F914F913F912F910F900BBE0F900FBEAE
:102EF0000F901F9018951F920F920FB60F920BB65E
:102F00000F9211242F933F934F935F936F937F936F
:102F10008F939F93AF93BF93EF93FF93E091A50798
:102F2000F091A6078091A3079091A4070995FF91BE
:102F3000EF91BF91AF919F918F917F916F915F9131
:102F40004F913F912F910F900BBE0F900FBE0F909E
:102F50001F9018951F920F920FB60F920BB60F92FB
:102F600011242F933F934F935F936F937F938F938E
:102F70009F93AF93BF93EF93FF93E091A107F091DD
:102F8000A20780919F079091A0070995FF91EF916B
:102F9000BF91AF919F918F917F916F915F914F9171
:102FA0003F912F910F900BBE0F900FBE0F901F906F
:102FB00018951F920F920FB60F920BB60F92112415
:102FC0002F933F934F935F936F937F938F939F9331
:102FD000AF93BF93EF93FF93E0919D07F0919E070E
:102FE00080919B0790919C070995FF91EF91BF916C
:102FF000AF919F918F917F916F915F914F913F9191
:103000002F910F900BBE0F900FBE0F901F90189531
:103010001F920F920FB60F920BB60F9211242F939F
:103020003F934F935F936F937F938F939F93AF9350
:10303000BF93EF93FF93E0919907F0919A078091E6
:103040009707909198070995FF91EF91BF91AF91E4
:103050009F918F917F916F915F914F913F912F91B0
:103060000F900BBE0F900FBE0F901F9018951F92E0
:103070000F920FB60F920BB60F9211242F933F931E
:103080004F935F936F937F938F939F93AF93BF9370
:10309000EF93FF93E0919507F09196078091930746
:1030A000909194070995FF91EF91BF91AF919F91F6
:1030B0008F917F916F915F914F913F912F910F90E1
:1030C0000BBE0F900FBE0F901F901895CF93DF93FC
:1030D000CDB7DEB728970FB6F894DEBF0FBECDBFD1
:1030E000000078943C9A3D9A459A449880E092E09A
:1030F000FC0145915591659174910496FC0185916F
:103100009591A591B49179836A835B834C83BD8348
:10311000AE839F8388878091DC009091DD0080FDE5
:1031200013C02091ED001092ED00FE013196CE010A
:10313000099631913093FA00E817F907D1F788E43E
:103140008093EF002093ED00A895A895FDCF2091E6
:10315000D80021602093D8004AE05EE06BE470E084
:103160004093E2005093E3006093E4007093E50025
:103170002091ED002F702093ED0028E02093EF00C8
:1031800040E050E060E878E14093F0005093F100B7
:103190006093F2007093F30045E060EE7FEF4093A0
:1031A000F4005093F5006093F6007093F7002091BF
:1031B000ED002F7020612093ED0028E02093EF00B8
:1031C00040E060E87AE14093F0005093F1006093B2
:1031D000F2007093F30045E060EE7FEF4093F4005F
:1031E0005093F5006093F6007093F7002091ED0086
:1031F0002F7020622093ED0028EC2093EF0040E038
:1032000060E07AE04093F0005093F1006093F200A8
:103210007093F30045E060EE7FEF4093F40050932D
:10322000F5006093F6007093F7002091ED002F7089
:1032300020632093ED0028EC2093EF0040E060E055
:103240007BE04093F0005093F1006093F2007093A4
:10325000F30045E060EE7FEF4093F4005093F500FB
:103260006093F6007093F70024E0322F3295307FA0
:103270003093ED001092EF002F5F2F702F30A9F7E1
:103280001092DF001092DE0020EF2093DB0090937D
:10329000DC078093DB0785EC99E19093DE07809350
:1032A000DD071092EC008091D80082608093D800F6
:1032B0008091D90082FFFCCF08952091D90021FD93
:1032C00062C02FEF2093D9002091EC002F30B9F18C
:1032D0005091ED002093ED002091EE001092EE0051
:1032E000789425FF2DC04091EF004F706091F2005F
:1032F0006295669567707091F300770F770F770F7F
:10330000272F262B6091F300362F32953695377094
:10331000220F331F22953295307F3227207F3227AC
:10332000240F311D6AE028303607B9F06BE02830F1
:10333000360739F140684093EF005093ED0008954F
:1033400026FF08C08091EF008091F2008091F30089
:103350008091F3005093ED000895E0E0442351F391
:10336000F0E0EE0FFF1FEE0FFF1FEE0FFF1FE80F45
:10337000F91F80E09091FA0091938F5F8417D0F34A
:10338000D9CFE1E0EBCF0E94BC110E945D190895F6
:103390001092200810921F088AEB91E19093220866
:1033A0008093210810921C0810921B0890931E080D
:1033B00080931D08109218081092170890931A080D
:1033C000809319081092140810921308909316080D
:1033D000809315081092100810920F08909312080D
:1033E0008093110810920C0810920B0890930E080D
:1033F00080930D08109208081092070890930A080D
:10340000809309081092040810920308909306080C
:1034100080930508109200081092FF07909302080D
:10342000809301081092FC071092FB079093FE070F
:103430008093FD071092F8071092F7079093FA0710
:103440008093F9071092F4071092F3079093F60710
:103450008093F5071092F0071092EF079093F20710
:103460008093F1071092EC071092EB079093EE0710
:103470008093ED071092E8071092E7079093EA0710
:103480008093E9071092E4071092E3079093E60710
:103490008093E5071092E0071092DF079093E20710
:1034A0008093E1071092DC071092DB079093DE0710
:1034B0008093DD071092D8071092D7079093DA0710
:1034C0008093D9071092D4071092D3079093D60710
:1034D0008093D5071092D0071092CF079093D20710
:1034E0008093D1071092CC071092CB079093CE0710
:1034F0008093CD071092C8071092C7079093CA0710
:103500008093C9071092C4071092C3079093C6070F
:103510008093C5071092C0071092BF079093C2070F
:103520008093C1071092BC071092BB079093BE070F
:103530008093BD071092B8071092B7079093BA070F
:103540008093B9071092B4071092B3079093B6070F
:103550008093B5071092B0071092AF079093B2070F
:103560008093B1071092AC071092AB079093AE070F
:103570008093AD071092A8071092A7079093AA070F
:103580008093A9071092A4071092A3079093A6070F
:103590008093A5071092A00710929F079093A2070F
:1035A0008093A10710929C0710929B0790939E070F
:1035B00080939D07109298071092970790939A070F
:1035C000809399071092940710929307909396070F
:1035D00080939507E1E9F1E08BEB91E11182108294
:1035E00093838283369627E0E139F207B9F7109288
:1035F00091071092920780E091E00E94A718089529
:0C3600000790F691E02D0994F894FFCF9C
:0400000300002300D6
:00000001FF
